:100000000201AF02023BEE30E707C3E49FFFE49E2C
:02001000FE22CE
:1000130002031F8F37AF377E50EF8EF0A4FFAEF091
:1000230074322FF974053EFA7BFF8B388A39893A8B
:10003300AB38AA39A93A12040EFF8F3BAB38AA3961
:10004300A93A12040EFFEF3395E0FEEF4E70030260
:1000530000E4AB38AA39A93A12040EFF8F3C753D70
:1000630001AF3CEF3395E0FEC3EE648094805014FF
:10007300AF3CEF3395E0FE120006EF24FDFFEE34B4
:10008300FFFE800FAF3CEF3395E0FEEF2404FFEE5D
:100093003400FE8F3CAF3C8F3DAF3D1204B21200E3
:1000A300E8EF653D6010AF0C7E00EF4E7008AF0DBA
:1000B3007E00EF4E60E8E50C6008750C0012057BCE
:1000C300801FE50D600512057B8016AF3D1205709C
:1000D3007401253AF53AE43539F53912057B020006
:1000E3003F12057B2212044D8F4CE54C120427016D
:1000F3002977013D7B017E7D01927E012EB701426E
:10010300BB0183BD0197BE0133D70147DB0188DD06
:10011300019CDE0138E7014CEB018DED01A1EE01FD
:10012300A6FF000001A9750A01807B750A0280768B
:10013300750A038071750A04806C750A05806775FA
:100143000A068062750A07805DD2A0750A14AF0B98
:100153007E00EF241EFFEE3400FEAD087C00EFB5F9
:100163000507EEB5040375081EAF080508120570F0
:100173007F647E001203CCC2A0802B750A08802600
:10018300750A098021750A0A801C750A0B80177588
:100193000A0C8012750A0D800D750A0E8008750A07
:1001A300148003750A14850A4CAF4C22787FE4F659
:1001B300D8FD7581510201F6020486E493A3F8E4A5
:1001C30093A34003F68001F208DFF48029E493A3AC
:1001D300F85407240CC8C333C4540F4420C88340C5
:1001E30004F456800146F6DFE4800B010204081094
:1001F300204080900387E47E019360BCA3FF543FBB
:1002030030E509541FFEE493A360010ECF54C025CB
:10021300E060A840B8E493A3FAE493A3F8E493A3BB
:10022300C8C582C8CAC583CAF0A3C8C582C8CAC51F
:1002330083CADFE9DEE780BEC0E0C0F0C083C082CE
:10024300C0D075D000C000C001C002C003C004C04C
:1002530005C006C0077F0A7E0012053520B21CE5E3
:100263000D70047F0180027F008F0DE52070047FF5
:100273000180027F008F20B2B6B2B5AF207E00EFBF
:1002830064014E700AE5092432FF12057080057F70
:1002930031120570D007D006D005D004D003D002A8
:1002A300D001D000D0D0D082D083D0F0D0E0328F34
:1002B300428D438B441205207F801204F6AF4274B3
:1002C3002C2FF8E6FF12050BAF4374342FF8E6FF2B
:1002D30012050B7FC01204F6754500AF457E00C3BF
:1002E300EF9403EE64809480502CAF45AE44EE75DA
:1002F300F003A42421F8E82FF8E6FFEF6018AF45D8
:10030300AE44EE75F003A42421F8E82FF8E6FF12BB
:10031300050B054580C57F0C1204F622C0E0C0F032
:10032300C083C082C0D075D000C000C001C002C06D
:1003330003C004C005C006C0077F0A7E001205354E
:1003430020B326E5206022D2B70509750C01E50923
:10035300D3951F40037509017F647E001203CCC24D
:10036300B7E5092432FF120570D007D006D005D0B7
:1003730004D003D002D001D000D0D0D082D083D01B
:10038300F0D0E032110EC0F9A4B0999282D88090D7
:100393008883C6A1868EFF01081E010B03010D0190
:1003A300012000010901011F04010C00072D313256
:1003B30033343536370C21647531647532647533E3
:1003C3006475340334232000008E3E8F3FE53F15D0
:1003D3003FAE3E7002153EFFEF4E602E754000AFFC
:1003E300407E00C3EF9402EE6480948050DF754139
:1003F30000AF417E00C3EF947AEE64809480500492
:10040300054180ED054080D780C322BB0106898268
:100413008A83E0225002E722BBFE02E32289828A1A
:1004230083E49322D083D082F8E49370127401930F
:10043300700DA3A393F8740193F5828883E4737416
:1004430002936860EFA3A3A380DF75900FE5905438
:100453000FF548AF487E00EF640F4E60077F0A7EBA
:10046300001203CCE590540FF5487590F0E59054D5
:10047300F0F549AF907E00EF64F04E70F6E5482545
:1004830049FF221204DD12055DE50D60141200E838
:10049300AF0A7E00EF64144E60EFAF0A120570805E
:1004A300E8E52060E4AF0912001680F580DB228FB7
:1004B30050AF507E00C3EF9408EE648094805002E6
:1004C3001550E55033333354F8F550E5A05407FF86
:1004D300EF4550FFEF4480F5A022D2AF759840431B
:1004E300878053890F438920758BF3758DF3C2ABD6
:1004F300D28E228F4D854D80C2A0C2A1D2A27F147D
:100503007E001203CCC2A2228F4E854E80D2A0C29F
:10051300A1D2A27FC87E001203CCC2A2227F011205
:1005230004F67F381204F67F0F1204F67F061204D6
:10053300F6228E468F47E5471547AE4670021546AD
:10054300FFEF4E70F1228E4A8F4BE54B154BAE4AAF
:100553007002154AFFEF4E70F122D2AFD2A8D288B3
:10056300D2AAD28AD2B6C2B5C2A0C2B7228F4F8551
:100573004F993099FDC2992275510053A00722016A
:100583000203010102030103040503040505060533
:1005930004030105060504030102FB0102FB01003C
:1005A3000000000000000000000000000000000048
:1005B3000000000000000000000000000000000038
:1005C3000000000000000000000000000000000127
:1005D30001050506060504040303020201050504DB
:1005E30004030302050504040303020101050506D0
:1005F30006050404030302020100000000000000DA
:1006030000000000000000000000000000000000E7
:10061300000000000000000000000000000000FBDC
:10062300FBFAFB01F9FBFBFAFB0201FBFB050301F0
:10063300F9FA040403010302FBFBFAFB01F9FBFBD8
:10064300FAFB0201FBFB050301F9FA0000000000BD
:100653000000000000000000000000000000000097
:10066300000000000000000000000000000000FB8C
:100673000303FB0202FB01010102FB0303FB020272
:10068300FB0101F901FBFB03030201F901F9FAFB89
:10069300FBFB010101F9F9F901020302FBFB03036F
:1006A300050504030401FBFB010102020102010031
:0F06B30000000000000000000000000000000038
:00000001FF
